:020000000328D3
:100006008316031385018601831285018601073055
:100016009F00051406150B30FB002630FC005D30F2
:10002600FD00FD0B1428FC0B1428FB0B1428000004
:10003600000005100611851486140630FB001330E7
:10004600FC00AD30FD00FD0B2628FC0B2628FB0B23
:1000560026280000000085108610051506140B30B2
:10006600FB002630FC005D30FD00FD0B3828FC0B44
:100076003828FB0B382800000000051106108514EF
:1000860086140630FB001330FC00AD30FD00FD0B7E
:100096004A28FC0B4A28FB0B4A2800000000851062
:0600A60086100C2855280D
:02400E00792116
:00000001FF
