:020000000328D3
:100006008316031386018312860107309F00013091
:1000160086000D30FC00FB30FD00FD0B1028FC0BAC
:10002600102800000000023086000D30FC00FB3076
:10003600FD00FD0B1C28FC0B1C28000000000430F2
:1000460086000D30FC00FB30FD00FD0B2828FC0B64
:10005600282800000000083086000D30FC00FB3028
:10006600FD00FD0B3428FC0B342800000000103086
:1000760086000D30FC00FB30FD00FD0B4028FC0B1C
:10008600402800000000203086000D30FC00FB30C8
:10009600FD00FD0B4C28FC0B4C28000000004030F6
:1000A60086000D30FC00FB30FD00FD0B5828FC0BD4
:1000B600582800000000803086000D30FC00FB3020
:1000C600FD00FD0B6428FC0B642800000000803056
:1000D60086000D30FC00FB30FD00FD0B7028FC0B8C
:1000E600702800000000403086000D30FC00FB3018
:1000F600FD00FD0B7C28FC0B7C2800000000203056
:1001060086000D30FC00FB30FD00FD0B8828FC0B43
:10011600882800000000103086000D30FC00FB30FF
:10012600FD00FD0B9428FC0B94280000000008300D
:1001360086000D30FC00FB30FD00FD0BA028FC0BFB
:10014600A02800000000043086000D30FC00FB30C3
:10015600FD00FD0BAC28FC0BAC28000000000230B3
:1001660086000D30FC00FB30FD00FD0BB828FC0BB3
:10017600B82800000000013086000D30FC00FB307E
:10018600FD00FD0BC428FC0BC428000000000A2853
:02019600CB2874
:02400E00792116
:00000001FF
