:020000000328D3
:100006008316031385018312850107309F00013093
:1000160085001030FB003930FC000D30FD00FD0B73
:100026001228FC0B1228FB0B1228000000000230DD
:1000360085000630FB001330FC00AD30FD00FD0BE3
:100046002228FC0B2228FB0B22280000000004308B
:1000560085000B30FB002630FC005D30FD00FD0BFB
:100066003228FC0B3228FB0B32280000000002303D
:1000760085000630FB001330FC00AD30FD00FD0BA3
:100086004228FC0B4228FB0B4228000000000130EE
:0600960085000A284D2838
:02400E00792116
:00000001FF
